{
  "contractName": "Adoption",
  "abi": [
    {
      "constant": true,
      "inputs": [
        {
          "name": "",
          "type": "uint256"
        }
      ],
      "name": "adopters",
      "outputs": [
        {
          "name": "",
          "type": "address"
        }
      ],
      "payable": false,
      "stateMutability": "view",
      "type": "function",
      "signature": "0x43ae80d3"
    },
    {
      "constant": true,
      "inputs": [
        {
          "name": "",
          "type": "uint256"
        }
      ],
      "name": "volume",
      "outputs": [
        {
          "name": "",
          "type": "uint256"
        }
      ],
      "payable": false,
      "stateMutability": "view",
      "type": "function",
      "signature": "0xa38f5742"
    },
    {
      "constant": false,
      "inputs": [
        {
          "name": "petId",
          "type": "uint256"
        }
      ],
      "name": "adopt",
      "outputs": [
        {
          "name": "",
          "type": "uint256"
        }
      ],
      "payable": false,
      "stateMutability": "nonpayable",
      "type": "function",
      "signature": "0x8588b2c5"
    },
    {
      "constant": false,
      "inputs": [
        {
          "name": "petId",
          "type": "uint256"
        }
      ],
      "name": "fight",
      "outputs": [
        {
          "name": "",
          "type": "uint256"
        }
      ],
      "payable": false,
      "stateMutability": "nonpayable",
      "type": "function",
      "signature": "0xdf6a37aa"
    },
    {
      "constant": true,
      "inputs": [],
      "name": "getAdopters",
      "outputs": [
        {
          "name": "",
          "type": "address[16]"
        }
      ],
      "payable": false,
      "stateMutability": "view",
      "type": "function",
      "signature": "0x3de4eb17"
    },
    {
      "constant": true,
      "inputs": [],
      "name": "getVolume",
      "outputs": [
        {
          "name": "",
          "type": "uint256[16]"
        }
      ],
      "payable": false,
      "stateMutability": "view",
      "type": "function",
      "signature": "0xc67bbc24"
    },
    {
      "constant": true,
      "inputs": [],
      "name": "whatIsnumber",
      "outputs": [
        {
          "name": "",
          "type": "uint256"
        }
      ],
      "payable": false,
      "stateMutability": "view",
      "type": "function",
      "signature": "0xc0fb97fd"
    }
  ],
  "bytecode": "0x608060405261020060405190810160405280600060ff168152602001600060ff168152602001600060ff168152602001600060ff168152602001600060ff168152602001600060ff168152602001600060ff168152602001600060ff168152602001600060ff168152602001600060ff168152602001600060ff168152602001600060ff168152602001600060ff168152602001600060ff168152602001600060ff168152602001600060ff1681525060109060106100bf9291906100d2565b503480156100cc57600080fd5b5061013c565b8260108101928215610106579160200282015b82811115610105578251829060ff169055916020019190600101906100e5565b5b5090506101139190610117565b5090565b61013991905b8082111561013557600081600090555060010161011d565b5090565b90565b61063a8061014b6000396000f3fe608060405260043610610083576000357c0100000000000000000000000000000000000000000000000000000000900463ffffffff1680633de4eb171461008857806343ae80d3146100db5780638588b2c514610156578063a38f5742146101a5578063c0fb97fd146101f4578063c67bbc241461021f578063df6a37aa14610272575b600080fd5b34801561009457600080fd5b5061009d6102c1565b6040518082601060200280838360005b838110156100c85780820151818401526020810190506100ad565b5050505090500191505060405180910390f35b3480156100e757600080fd5b50610114600480360360208110156100fe57600080fd5b8101908080359060200190929190505050610342565b604051808273ffffffffffffffffffffffffffffffffffffffff1673ffffffffffffffffffffffffffffffffffffffff16815260200191505060405180910390f35b34801561016257600080fd5b5061018f6004803603602081101561017957600080fd5b8101908080359060200190929190505050610377565b6040518082815260200191505060405180910390f35b3480156101b157600080fd5b506101de600480360360208110156101c857600080fd5b81019080803590602001909291905050506104a6565b6040518082815260200191505060405180910390f35b34801561020057600080fd5b506102096104c0565b6040518082815260200191505060405180910390f35b34801561022b57600080fd5b50610234610507565b6040518082601060200280838360005b8381101561025f578082015181840152602081019050610244565b5050505090500191505060405180910390f35b34801561027e57600080fd5b506102ab6004803603602081101561029557600080fd5b8101908080359060200190929190505050610551565b6040518082815260200191505060405180910390f35b6102c96105c6565b6000601080602002604051908101604052809291908260108015610338576020028201915b8160009054906101000a900473ffffffffffffffffffffffffffffffffffffffff1673ffffffffffffffffffffffffffffffffffffffff16815260200190600101908083116102ee575b5050505050905090565b60008160108110151561035157fe5b016000915054906101000a900473ffffffffffffffffffffffffffffffffffffffff1681565b600080821015801561038a5750600f8211155b80156103d557506005602060003373ffffffffffffffffffffffffffffffffffffffff1673ffffffffffffffffffffffffffffffffffffffff16815260200190815260200160002054105b15156103e057600080fd5b336000836010811015156103f057fe5b0160006101000a81548173ffffffffffffffffffffffffffffffffffffffff021916908373ffffffffffffffffffffffffffffffffffffffff160217905550602060003373ffffffffffffffffffffffffffffffffffffffff1673ffffffffffffffffffffffffffffffffffffffff1681526020019081526020016000206000815480929190600101919050555060108260108110151561048d57fe5b0160008154809291906001019190505550819050919050565b6010816010811015156104b557fe5b016000915090505481565b6000602060003373ffffffffffffffffffffffffffffffffffffffff1673ffffffffffffffffffffffffffffffffffffffff16815260200190815260200160002054905090565b61050f6105ea565b60108080602002604051908101604052809291908260108015610547576020028201915b815481526020019060010190808311610533575b5050505050905090565b60008082101580156105645750600f8211155b151561056f57600080fd5b3360008360108110151561057f57fe5b0160006101000a81548173ffffffffffffffffffffffffffffffffffffffff021916908373ffffffffffffffffffffffffffffffffffffffff160217905550819050919050565b61020060405190810160405280601090602082028038833980820191505090505090565b6102006040519081016040528060109060208202803883398082019150509050509056fea165627a7a7230582056b687523b5c4d6d765904aa73ad603259df7e7994a81c7c8da82ff95859cd820029",
  "source": "pragma solidity ^0.5.0;\n\n\ncontract Adoption \n{\n\n  address[16] public adopters;  // ���������ߵĵ�ַ\n  uint[16] public volume = [0,0,0,0,0,0,0,0,0,0,0,0,0,0,0,0];\n\n  \n  mapping (address => uint) adoptersCount;\n\n    // �������\n   function adopt(uint petId) public returns (uint) \n   {\n    require(petId >= 0 && petId <= 15 && adoptersCount[msg.sender]<5);  // ȷ��id�����鳤����\n    \n    \n    adopters[petId] = msg.sender;        // ����������ַ\n    adoptersCount[msg.sender]++;\n    volume[petId]++; \n    \n    return petId;\n   }\n   \n function fight(uint petId) public returns (uint)\n   {\n    require(petId >= 0 && petId <= 15);  //\n    adopters[petId] = msg.sender;\n    return petId;\n   }\n  // ����������\n  function getAdopters() public view returns (address[16]memory) \n  {\n    return adopters;\n  }\n  function getVolume() public view returns (uint[16]memory)\n  {\n    return volume;\n  }\n  function whatIsnumber() public view returns (uint){\n      return adoptersCount[msg.sender];\n  }\n  \n}",
  "sourcePath": "F:/pet-shop-tutorial/pet-shop-tutorial/contracts/Adoption.sol",
  "compiler": {
    "name": "solc",
    "version": "0.5.0+commit.1d4f565a.Emscripten.clang"
  },
  "schemaVersion": "3.0.2",
  "updatedAt": "2019-04-19T08:16:09.154Z",
  "devdoc": {
    "methods": {}
  },
  "userdoc": {
    "methods": {}
  }
}